{
  "contractName": "Staker",
  "abi": [
    {
      "inputs": [],
      "stateMutability": "nonpayable",
      "type": "constructor"
    },
    {
      "anonymous": false,
      "inputs": [
        {
          "indexed": true,
          "internalType": "address",
          "name": "owner",
          "type": "address"
        },
        {
          "indexed": true,
          "internalType": "address",
          "name": "spender",
          "type": "address"
        },
        {
          "indexed": false,
          "internalType": "uint256",
          "name": "value",
          "type": "uint256"
        }
      ],
      "name": "Approval",
      "type": "event"
    },
    {
      "anonymous": false,
      "inputs": [
        {
          "indexed": false,
          "internalType": "address",
          "name": "user",
          "type": "address"
        },
        {
          "indexed": false,
          "internalType": "uint256",
          "name": "amount",
          "type": "uint256"
        }
      ],
      "name": "Staked",
      "type": "event"
    },
    {
      "anonymous": false,
      "inputs": [
        {
          "indexed": true,
          "internalType": "address",
          "name": "from",
          "type": "address"
        },
        {
          "indexed": true,
          "internalType": "address",
          "name": "to",
          "type": "address"
        },
        {
          "indexed": false,
          "internalType": "uint256",
          "name": "value",
          "type": "uint256"
        }
      ],
      "name": "Transfer",
      "type": "event"
    },
    {
      "anonymous": false,
      "inputs": [
        {
          "indexed": false,
          "internalType": "address",
          "name": "user",
          "type": "address"
        },
        {
          "indexed": false,
          "internalType": "uint256",
          "name": "amount",
          "type": "uint256"
        }
      ],
      "name": "Unstaked",
      "type": "event"
    },
    {
      "inputs": [
        {
          "internalType": "address",
          "name": "",
          "type": "address"
        }
      ],
      "name": "addrToId",
      "outputs": [
        {
          "internalType": "uint256",
          "name": "",
          "type": "uint256"
        }
      ],
      "stateMutability": "view",
      "type": "function"
    },
    {
      "inputs": [
        {
          "internalType": "address",
          "name": "",
          "type": "address"
        },
        {
          "internalType": "address",
          "name": "",
          "type": "address"
        }
      ],
      "name": "allowance",
      "outputs": [
        {
          "internalType": "uint256",
          "name": "",
          "type": "uint256"
        }
      ],
      "stateMutability": "view",
      "type": "function"
    },
    {
      "inputs": [
        {
          "internalType": "address",
          "name": "spender",
          "type": "address"
        },
        {
          "internalType": "uint256",
          "name": "value",
          "type": "uint256"
        }
      ],
      "name": "approve",
      "outputs": [
        {
          "internalType": "bool",
          "name": "success",
          "type": "bool"
        }
      ],
      "stateMutability": "nonpayable",
      "type": "function"
    },
    {
      "inputs": [
        {
          "internalType": "address",
          "name": "",
          "type": "address"
        }
      ],
      "name": "balanceOf",
      "outputs": [
        {
          "internalType": "uint256",
          "name": "",
          "type": "uint256"
        }
      ],
      "stateMutability": "view",
      "type": "function"
    },
    {
      "inputs": [],
      "name": "name",
      "outputs": [
        {
          "internalType": "string",
          "name": "",
          "type": "string"
        }
      ],
      "stateMutability": "view",
      "type": "function"
    },
    {
      "inputs": [],
      "name": "owner",
      "outputs": [
        {
          "internalType": "address",
          "name": "",
          "type": "address"
        }
      ],
      "stateMutability": "view",
      "type": "function"
    },
    {
      "inputs": [],
      "name": "stake_ids",
      "outputs": [
        {
          "internalType": "uint256",
          "name": "",
          "type": "uint256"
        }
      ],
      "stateMutability": "view",
      "type": "function"
    },
    {
      "inputs": [
        {
          "internalType": "uint256",
          "name": "",
          "type": "uint256"
        }
      ],
      "name": "stakers",
      "outputs": [
        {
          "internalType": "uint256",
          "name": "id",
          "type": "uint256"
        },
        {
          "internalType": "uint256",
          "name": "staked_amount",
          "type": "uint256"
        },
        {
          "internalType": "uint256",
          "name": "reward_earned",
          "type": "uint256"
        },
        {
          "internalType": "uint256",
          "name": "starting_date",
          "type": "uint256"
        },
        {
          "internalType": "address",
          "name": "addr",
          "type": "address"
        }
      ],
      "stateMutability": "view",
      "type": "function"
    },
    {
      "inputs": [],
      "name": "symbol",
      "outputs": [
        {
          "internalType": "string",
          "name": "",
          "type": "string"
        }
      ],
      "stateMutability": "view",
      "type": "function"
    },
    {
      "inputs": [],
      "name": "totalRewardRate",
      "outputs": [
        {
          "internalType": "uint256",
          "name": "",
          "type": "uint256"
        }
      ],
      "stateMutability": "view",
      "type": "function"
    },
    {
      "inputs": [],
      "name": "totalSupply",
      "outputs": [
        {
          "internalType": "uint256",
          "name": "",
          "type": "uint256"
        }
      ],
      "stateMutability": "view",
      "type": "function"
    },
    {
      "inputs": [
        {
          "internalType": "address",
          "name": "to",
          "type": "address"
        },
        {
          "internalType": "uint256",
          "name": "value",
          "type": "uint256"
        }
      ],
      "name": "transfer",
      "outputs": [
        {
          "internalType": "bool",
          "name": "success",
          "type": "bool"
        }
      ],
      "stateMutability": "nonpayable",
      "type": "function"
    },
    {
      "inputs": [
        {
          "internalType": "address",
          "name": "from",
          "type": "address"
        },
        {
          "internalType": "address",
          "name": "to",
          "type": "address"
        },
        {
          "internalType": "uint256",
          "name": "value",
          "type": "uint256"
        }
      ],
      "name": "transferFrom",
      "outputs": [
        {
          "internalType": "bool",
          "name": "success",
          "type": "bool"
        }
      ],
      "stateMutability": "nonpayable",
      "type": "function"
    },
    {
      "inputs": [
        {
          "internalType": "uint256",
          "name": "id",
          "type": "uint256"
        },
        {
          "internalType": "uint256",
          "name": "durationInMin",
          "type": "uint256"
        }
      ],
      "name": "calculateReward",
      "outputs": [
        {
          "internalType": "uint256",
          "name": "reward",
          "type": "uint256"
        }
      ],
      "stateMutability": "view",
      "type": "function"
    },
    {
      "inputs": [
        {
          "internalType": "address",
          "name": "recipient",
          "type": "address"
        },
        {
          "internalType": "uint256",
          "name": "amount",
          "type": "uint256"
        }
      ],
      "name": "airdrop",
      "outputs": [
        {
          "internalType": "bool",
          "name": "success",
          "type": "bool"
        }
      ],
      "stateMutability": "nonpayable",
      "type": "function"
    },
    {
      "inputs": [
        {
          "internalType": "uint256",
          "name": "amount",
          "type": "uint256"
        }
      ],
      "name": "deposit",
      "outputs": [
        {
          "internalType": "uint256",
          "name": "",
          "type": "uint256"
        }
      ],
      "stateMutability": "nonpayable",
      "type": "function"
    },
    {
      "inputs": [
        {
          "internalType": "uint256",
          "name": "id",
          "type": "uint256"
        }
      ],
      "name": "withdraw",
      "outputs": [
        {
          "internalType": "bool",
          "name": "success",
          "type": "bool"
        }
      ],
      "stateMutability": "nonpayable",
      "type": "function"
    }
  ],
  "bytecode": "0x60806040526040518060400160405280600f81526020017f50726573746f6e277320546f6b656e00000000000000000000000000000000008152506000908051906020019062000051929190620000fa565b506040518060400160405280600481526020017f5052455300000000000000000000000000000000000000000000000000000000815250600190805190602001906200009f929190620000fa565b506064600955348015620000b257600080fd5b5033600560006101000a81548173ffffffffffffffffffffffffffffffffffffffff021916908373ffffffffffffffffffffffffffffffffffffffff160217905550620001a9565b828054600181600116156101000203166002900490600052602060002090601f016020900481019282601f106200013d57805160ff19168380011785556200016e565b828001600101855582156200016e579182015b828111156200016d57825182559160200191906001019062000150565b5b5090506200017d919062000181565b5090565b620001a691905b80821115620001a257600081600090555060010162000188565b5090565b90565b61210180620001b96000396000f3fe608060405234801561001057600080fd5b506004361061010b5760003560e01c806370a08231116100a2578063a33c4df111610071578063a33c4df1146104f6578063a9059cbb1461054e578063b6b55f25146105b4578063dd62ed3e146105f6578063fd5e6dd11461066e5761010b565b806370a082311461036b5780638ba4cc3c146103c35780638da5cb5b1461042957806395d89b41146104735761010b565b806318160ddd116100de57806318160ddd1461026357806323b872dd146102815780632e1a7d4d1461030757806338a6c2df1461034d5761010b565b806303238db21461011057806306fdde031461012e578063095ea7b3146101b157806313ed084614610217575b600080fd5b6101186106f8565b6040518082815260200191505060405180910390f35b6101366106fe565b6040518080602001828103825283818151815260200191508051906020019080838360005b8381101561017657808201518184015260208101905061015b565b50505050905090810190601f1680156101a35780820380516001836020036101000a031916815260200191505b509250505060405180910390f35b6101fd600480360360408110156101c757600080fd5b81019080803573ffffffffffffffffffffffffffffffffffffffff1690602001909291908035906020019092919050505061079c565b604051808215151515815260200191505060405180910390f35b61024d6004803603604081101561022d57600080fd5b81019080803590602001909291908035906020019092919050505061088e565b6040518082815260200191505060405180910390f35b61026b610923565b6040518082815260200191505060405180910390f35b6102ed6004803603606081101561029757600080fd5b81019080803573ffffffffffffffffffffffffffffffffffffffff169060200190929190803573ffffffffffffffffffffffffffffffffffffffff16906020019092919080359060200190929190505050610929565b604051808215151515815260200191505060405180910390f35b6103336004803603602081101561031d57600080fd5b8101908080359060200190929190505050610d7b565b604051808215151515815260200191505060405180910390f35b610355611270565b6040518082815260200191505060405180910390f35b6103ad6004803603602081101561038157600080fd5b81019080803573ffffffffffffffffffffffffffffffffffffffff169060200190929190505050611276565b6040518082815260200191505060405180910390f35b61040f600480360360408110156103d957600080fd5b81019080803573ffffffffffffffffffffffffffffffffffffffff1690602001909291908035906020019092919050505061128e565b604051808215151515815260200191505060405180910390f35b610431611368565b604051808273ffffffffffffffffffffffffffffffffffffffff1673ffffffffffffffffffffffffffffffffffffffff16815260200191505060405180910390f35b61047b61138e565b6040518080602001828103825283818151815260200191508051906020019080838360005b838110156104bb5780820151818401526020810190506104a0565b50505050905090810190601f1680156104e85780820380516001836020036101000a031916815260200191505b509250505060405180910390f35b6105386004803603602081101561050c57600080fd5b81019080803573ffffffffffffffffffffffffffffffffffffffff16906020019092919050505061142c565b6040518082815260200191505060405180910390f35b61059a6004803603604081101561056457600080fd5b81019080803573ffffffffffffffffffffffffffffffffffffffff16906020019092919080359060200190929190505050611444565b604051808215151515815260200191505060405180910390f35b6105e0600480360360208110156105ca57600080fd5b8101908080359060200190929190505050611694565b6040518082815260200191505060405180910390f35b6106586004803603604081101561060c57600080fd5b81019080803573ffffffffffffffffffffffffffffffffffffffff169060200190929190803573ffffffffffffffffffffffffffffffffffffffff169060200190929190505050611b03565b6040518082815260200191505060405180910390f35b61069a6004803603602081101561068457600080fd5b8101908080359060200190929190505050611b28565b604051808681526020018581526020018481526020018381526020018273ffffffffffffffffffffffffffffffffffffffff1673ffffffffffffffffffffffffffffffffffffffff1681526020019550505050505060405180910390f35b60095481565b60008054600181600116156101000203166002900480601f0160208091040260200160405190810160405280929190818152602001828054600181600116156101000203166002900480156107945780601f1061076957610100808354040283529160200191610794565b820191906000526020600020905b81548152906001019060200180831161077757829003601f168201915b505050505081565b600081600460003373ffffffffffffffffffffffffffffffffffffffff1673ffffffffffffffffffffffffffffffffffffffff16815260200190815260200160002060008573ffffffffffffffffffffffffffffffffffffffff1673ffffffffffffffffffffffffffffffffffffffff168152602001908152602001600020819055508273ffffffffffffffffffffffffffffffffffffffff163373ffffffffffffffffffffffffffffffffffffffff167f8c5be1e5ebec7d5bd14f71427d1e84f3dd0314c0f7b2291e5b200ac8c7c3b925846040518082815260200191505060405180910390a36001905092915050565b6000806108a683600954611b7e90919063ffffffff16565b905060006007600086815260200190815260200160002060010154905060006108ed600a546108df606485611b7e90919063ffffffff16565b611bb290919063ffffffff16565b905061091560646109078386611b7e90919063ffffffff16565b611bb290919063ffffffff16565b935083935050505092915050565b60025481565b6000600360008573ffffffffffffffffffffffffffffffffffffffff1673ffffffffffffffffffffffffffffffffffffffff168152602001908152602001600020548211156109e0576040517f08c379a00000000000000000000000000000000000000000000000000000000081526004018080602001828103825260148152602001807f496e73756666696369656e742062616c616e636500000000000000000000000081525060200191505060405180910390fd5b81600460008673ffffffffffffffffffffffffffffffffffffffff1673ffffffffffffffffffffffffffffffffffffffff16815260200190815260200160002060003373ffffffffffffffffffffffffffffffffffffffff1673ffffffffffffffffffffffffffffffffffffffff168152602001908152602001600020541015610ad2576040517f08c379a00000000000000000000000000000000000000000000000000000000081526004018080602001828103825260168152602001807f496e73756666696369656e7420616c6c6f77616e63650000000000000000000081525060200191505060405180910390fd5b610b2482600360008773ffffffffffffffffffffffffffffffffffffffff1673ffffffffffffffffffffffffffffffffffffffff16815260200190815260200160002054611bc690919063ffffffff16565b600360008673ffffffffffffffffffffffffffffffffffffffff1673ffffffffffffffffffffffffffffffffffffffff16815260200190815260200160002081905550610bb982600360008673ffffffffffffffffffffffffffffffffffffffff1673ffffffffffffffffffffffffffffffffffffffff16815260200190815260200160002054611bdd90919063ffffffff16565b600360008573ffffffffffffffffffffffffffffffffffffffff1673ffffffffffffffffffffffffffffffffffffffff16815260200190815260200160002081905550610c8b82600460008773ffffffffffffffffffffffffffffffffffffffff1673ffffffffffffffffffffffffffffffffffffffff16815260200190815260200160002060003373ffffffffffffffffffffffffffffffffffffffff1673ffffffffffffffffffffffffffffffffffffffff16815260200190815260200160002054611bc690919063ffffffff16565b600460008673ffffffffffffffffffffffffffffffffffffffff1673ffffffffffffffffffffffffffffffffffffffff16815260200190815260200160002060003373ffffffffffffffffffffffffffffffffffffffff1673ffffffffffffffffffffffffffffffffffffffff168152602001908152602001600020819055508273ffffffffffffffffffffffffffffffffffffffff168473ffffffffffffffffffffffffffffffffffffffff167fddf252ad1be2c89b69c2b068fc378daa952ba7f163c4a11628f55a4df523b3ef846040518082815260200191505060405180910390a3600190509392505050565b6000816000600760008381526020019081526020016000206001015411610e0a576040517f08c379a000000000000000000000000000000000000000000000000000000000815260040180806020018281038252601b8152602001807f496e73756666696369656e74207374616b656420616d6f756e742e000000000081525060200191505060405180910390fd5b6000610e35600760008481526020019081526020016000206003015442611bc690919063ffffffff16565b90506000610e4d603c83611bb290919063ffffffff16565b9050610e59838261088e565b60076000858152602001908152602001600020600201819055506007600086815260200190815260200160002060040160009054906101000a900473ffffffffffffffffffffffffffffffffffffffff1673ffffffffffffffffffffffffffffffffffffffff163373ffffffffffffffffffffffffffffffffffffffff1614610f2d576040517f08c379a00000000000000000000000000000000000000000000000000000000081526004018080602001828103825260248152602001806120a86024913960400191505060405180910390fd5b600060076000878152602001908152602001600020600201541180610f6957506064600760008781526020019081526020016000206001015410155b610fdb576040517f08c379a00000000000000000000000000000000000000000000000000000000081526004018080602001828103825260138152602001807f496e73756666696369656e74206761696e732e0000000000000000000000000081525060200191505060405180910390fd5b600060076000878152602001908152602001600020600201541115611052576110506007600087815260200190815260200160002060040160009054906101000a900473ffffffffffffffffffffffffffffffffffffffff166007600088815260200190815260200160002060020154611bf7565b505b6110a86007600087815260200190815260200160002060040160009054906101000a900473ffffffffffffffffffffffffffffffffffffffff166007600088815260200190815260200160002060010154611bf7565b5060006110ea60076000888152602001908152602001600020600101546007600089815260200190815260200160002060020154611bdd90919063ffffffff16565b90507f0f5bb82176feb1b5e747e28471aa92156a04d9f3ab9f45f28e2d704232b93f756007600088815260200190815260200160002060040160009054906101000a900473ffffffffffffffffffffffffffffffffffffffff1682604051808373ffffffffffffffffffffffffffffffffffffffff1673ffffffffffffffffffffffffffffffffffffffff1681526020018281526020019250505060405180910390a1600860006007600089815260200190815260200160002060040160009054906101000a900473ffffffffffffffffffffffffffffffffffffffff1673ffffffffffffffffffffffffffffffffffffffff1673ffffffffffffffffffffffffffffffffffffffff16815260200190815260200160002060009055600760008781526020019081526020016000206000808201600090556001820160009055600282016000905560038201600090556004820160006101000a81549073ffffffffffffffffffffffffffffffffffffffff021916905550506001945050505050919050565b60065481565b60036020528060005260406000206000915090505481565b6000600560009054906101000a900473ffffffffffffffffffffffffffffffffffffffff1673ffffffffffffffffffffffffffffffffffffffff163373ffffffffffffffffffffffffffffffffffffffff1614611353576040517f08c379a000000000000000000000000000000000000000000000000000000000815260040180806020018281038252600d8152602001807f4e6f7420746865206f776e65720000000000000000000000000000000000000081525060200191505060405180910390fd5b61135d8383611bf7565b506001905092915050565b600560009054906101000a900473ffffffffffffffffffffffffffffffffffffffff1681565b60018054600181600116156101000203166002900480601f0160208091040260200160405190810160405280929190818152602001828054600181600116156101000203166002900480156114245780601f106113f957610100808354040283529160200191611424565b820191906000526020600020905b81548152906001019060200180831161140757829003601f168201915b505050505081565b60086020528060005260406000206000915090505481565b600081600360003373ffffffffffffffffffffffffffffffffffffffff1673ffffffffffffffffffffffffffffffffffffffff1681526020019081526020016000205410156114fb576040517f08c379a00000000000000000000000000000000000000000000000000000000081526004018080602001828103825260158152602001807f496e73756666696369656e742062616c616e63652e000000000000000000000081525060200191505060405180910390fd5b61154d82600360003373ffffffffffffffffffffffffffffffffffffffff1673ffffffffffffffffffffffffffffffffffffffff16815260200190815260200160002054611bc690919063ffffffff16565b600360003373ffffffffffffffffffffffffffffffffffffffff1673ffffffffffffffffffffffffffffffffffffffff168152602001908152602001600020819055506115e282600360008673ffffffffffffffffffffffffffffffffffffffff1673ffffffffffffffffffffffffffffffffffffffff16815260200190815260200160002054611bdd90919063ffffffff16565b600360008573ffffffffffffffffffffffffffffffffffffffff1673ffffffffffffffffffffffffffffffffffffffff168152602001908152602001600020819055508273ffffffffffffffffffffffffffffffffffffffff163373ffffffffffffffffffffffffffffffffffffffff167fddf252ad1be2c89b69c2b068fc378daa952ba7f163c4a11628f55a4df523b3ef846040518082815260200191505060405180910390a36001905092915050565b600081600360003373ffffffffffffffffffffffffffffffffffffffff1673ffffffffffffffffffffffffffffffffffffffff16815260200190815260200160002054101561174b576040517f08c379a00000000000000000000000000000000000000000000000000000000081526004018080602001828103825260158152602001807f496e73756666696369656e742062616c616e63652e000000000000000000000081525060200191505060405180910390fd5b60648210156117a5576040517f08c379a000000000000000000000000000000000000000000000000000000000815260040180806020018281038252602e81526020018061207a602e913960400191505060405180910390fd5b600560009054906101000a900473ffffffffffffffffffffffffffffffffffffffff1673ffffffffffffffffffffffffffffffffffffffff163373ffffffffffffffffffffffffffffffffffffffff16141580156118305750600073ffffffffffffffffffffffffffffffffffffffff163373ffffffffffffffffffffffffffffffffffffffff1614155b6118a2576040517f08c379a00000000000000000000000000000000000000000000000000000000081526004018080602001828103825260188152602001807f4f776e6572206f7220696e7661696420616464726573732e000000000000000081525060200191505060405180910390fd5b600060076000600860003373ffffffffffffffffffffffffffffffffffffffff1673ffffffffffffffffffffffffffffffffffffffff16815260200190815260200160002054815260200190815260200160002090506119023384611dbb565b5061191883600a54611bdd90919063ffffffff16565b600a819055507f9e71bc8eea02a63969f509818f2dafb9254532904319f9dbda79b67bd34a5f3d3384604051808373ffffffffffffffffffffffffffffffffffffffff1673ffffffffffffffffffffffffffffffffffffffff1681526020018281526020019250505060405180910390a16000816000015411156119c2576119ad838260010154611bdd90919063ffffffff16565b81600101819055508060000154915050611afe565b6119d86001600654611bdd90919063ffffffff16565b6006819055506119e6612034565b6040518060a001604052806006548152602001858152602001600081526020014281526020013373ffffffffffffffffffffffffffffffffffffffff168152509050600654600860003373ffffffffffffffffffffffffffffffffffffffff1673ffffffffffffffffffffffffffffffffffffffff16815260200190815260200160002081905550806007600060065481526020019081526020016000206000820151816000015560208201518160010155604082015181600201556060820151816003015560808201518160040160006101000a81548173ffffffffffffffffffffffffffffffffffffffff021916908373ffffffffffffffffffffffffffffffffffffffff160217905550905050600654925050505b919050565b6004602052816000526040600020602052806000526040600020600091509150505481565b60076020528060005260406000206000915090508060000154908060010154908060020154908060030154908060040160009054906101000a900473ffffffffffffffffffffffffffffffffffffffff16905085565b600080831415611b915760009050611bac565b818302905081838281611ba057fe5b0414611ba857fe5b8090505b92915050565b6000818381611bbd57fe5b04905092915050565b600082821115611bd257fe5b818303905092915050565b6000818301905082811015611bee57fe5b80905092915050565b60008073ffffffffffffffffffffffffffffffffffffffff163373ffffffffffffffffffffffffffffffffffffffff161415611c9b576040517f08c379a000000000000000000000000000000000000000000000000000000000815260040180806020018281038252600f8152602001807f496e76616c69642061646472657373000000000000000000000000000000000081525060200191505060405180910390fd5b611cb082600254611bdd90919063ffffffff16565b600281905550611d0882600360008673ffffffffffffffffffffffffffffffffffffffff1673ffffffffffffffffffffffffffffffffffffffff16815260200190815260200160002054611bdd90919063ffffffff16565b600360008573ffffffffffffffffffffffffffffffffffffffff1673ffffffffffffffffffffffffffffffffffffffff168152602001908152602001600020819055508273ffffffffffffffffffffffffffffffffffffffff16600073ffffffffffffffffffffffffffffffffffffffff167fddf252ad1be2c89b69c2b068fc378daa952ba7f163c4a11628f55a4df523b3ef846040518082815260200191505060405180910390a36001905092915050565b60008073ffffffffffffffffffffffffffffffffffffffff163373ffffffffffffffffffffffffffffffffffffffff161415611e5f576040517f08c379a000000000000000000000000000000000000000000000000000000000815260040180806020018281038252600f8152602001807f496e76616c69642061646472657373000000000000000000000000000000000081525060200191505060405180910390fd5b81600360008573ffffffffffffffffffffffffffffffffffffffff1673ffffffffffffffffffffffffffffffffffffffff168152602001908152602001600020541015611f14576040517f08c379a000000000000000000000000000000000000000000000000000000000815260040180806020018281038252601c8152602001807f496e73756666696369656e742062616c616e636520746f206275726e0000000081525060200191505060405180910390fd5b611f2982600254611bc690919063ffffffff16565b600281905550611f8182600360008673ffffffffffffffffffffffffffffffffffffffff1673ffffffffffffffffffffffffffffffffffffffff16815260200190815260200160002054611bc690919063ffffffff16565b600360008573ffffffffffffffffffffffffffffffffffffffff1673ffffffffffffffffffffffffffffffffffffffff16815260200190815260200160002081905550600073ffffffffffffffffffffffffffffffffffffffff168373ffffffffffffffffffffffffffffffffffffffff167fddf252ad1be2c89b69c2b068fc378daa952ba7f163c4a11628f55a4df523b3ef846040518082815260200191505060405180910390a36001905092915050565b6040518060a0016040528060008152602001600081526020016000815260200160008152602001600073ffffffffffffffffffffffffffffffffffffffff168152509056fe416d6f756e742069732062656c6f7720746865206d696e696d756d207374616b6520726571756972656d656e742e4e6f7420746865207374616b65722c20756e617574686f72697a65642063616c6c65722ea2646970667358221220ce23c2d56d26d59f24976b92341f0ab50a6f4b34befc8b6c57d0f8798f328e7264736f6c63430006000033",
  "source": "// Contract to possess staked tokens and to distribute rewards.\n\npragma solidity ^0.6.0;\n\nimport \"./libs/SafeMath.sol\";\nimport \"./RewardToken.sol\";\n\ncontract Staker is RewardToken {\n\n    using SafeMath for uint256;\n\n    address public owner;\n    uint256 public stake_ids;\n    mapping(uint256 => StakeProfile) public stakers; // keeps track of stakers.\n    mapping(address => uint256) public addrToId; // associates IDs with staker address.\n    uint256 public totalRewardRate = 100; // a total of 100 rewards generated per minute to be distributed proportionally to all stakers.\n    uint256 private totalStake;\n\n    event Staked(address user, uint256 amount);\n    event Unstaked(address user, uint256 amount);\n\n    /**\n    * @dev Struct to keep record of staker profile.\n    */\n    struct StakeProfile {\n        uint256 id;\n        uint256 staked_amount; // the amount of token locked for staking.\n        uint256 reward_earned;\n        uint256 starting_date;\n        address addr;\n    }\n\n    constructor() public {\n        owner = msg.sender;\n    }\n\n    /**\n    * @dev Function to calculate the reward.\n    */\n    function calculateReward(uint256 id, uint256 durationInMin) public view returns(uint256 reward) {\n        uint totalReward = totalRewardRate.mul(durationInMin);\n        uint staked = stakers[id].staked_amount;\n        // solidity does not support floating numbers.\n        uint percent = (staked.mul(100)).div(totalStake);\n        reward = (totalReward.mul(percent)).div(100);\n        return reward;\n    }\n\n    /**\n    * @dev updates rewards. (Does not mint new tokens until withdrawal)\n    */\n    modifier updateReward(uint256 id) {\n        require(stakers[id].staked_amount > 0, \"Insufficient staked amount.\");\n        uint duration = now.sub(stakers[id].starting_date);\n        uint durationInMin = duration.div(60);\n        stakers[id].reward_earned = calculateReward(id, durationInMin);\n        _;\n    }\n\n    /**\n    * @dev Function to provide ICO/AirDrop capability for owners.\n    */\n    function airdrop(address recipient, uint256 amount) public returns(bool success) {\n        require(msg.sender == owner, \"Not the owner\");\n        _mint(recipient, amount);\n        return true;\n    }\n\n    /**\n    * @dev Function to allow stakers to deposit tokens to stake, requires a minimum of 100 tokens.\n    * @return Staker ID.\n    */\n    function deposit(uint256 amount) public returns(uint256) {\n        require(balanceOf[msg.sender] >= amount, \"Insufficient balance.\");\n        require(amount >= 100, \"Amount is below the minimum stake requirement.\");\n        require((msg.sender != owner) && (msg.sender != address(0)), \"Owner or invaid address.\"); // TEMP\n\n        StakeProfile storage staker = stakers[addrToId[msg.sender]];\n        _burn(msg.sender, amount);\n\n        totalStake = totalStake.add(amount);\n\n        emit Staked(msg.sender, amount);\n\n        // check if the profile already exists.\n        if (staker.id > 0) {\n            staker.staked_amount = staker.staked_amount.add(amount);\n            return staker.id;\n        }\n        else {\n            stake_ids = stake_ids.add(1);\n            StakeProfile memory newStaker = StakeProfile(stake_ids, amount, 0, now, msg.sender);\n            addrToId[msg.sender] = stake_ids;\n            stakers[stake_ids] = newStaker;\n            return stake_ids;\n        }\n    }\n\n    /**\n     * @dev Function to withdraw.\n     */\n    function withdraw(uint256 id) public updateReward(id) returns (bool success) {\n        require(msg.sender == stakers[id].addr, \"Not the staker, unauthorized caller.\");\n        require(stakers[id].reward_earned > 0 || stakers[id].staked_amount >= 100, \"Insufficient gains.\");\n        // mint new tokens for rewards earned.\n        if (stakers[id].reward_earned > 0) {\n            _mint(stakers[id].addr, stakers[id].reward_earned);\n        }\n        // transfer stake.\n        _mint(stakers[id].addr, stakers[id].staked_amount);\n\n        uint amount = stakers[id].reward_earned.add(stakers[id].staked_amount);\n        emit Unstaked(stakers[id].addr, amount);\n\n        delete addrToId[stakers[id].addr];\n        delete stakers[id];\n\n        return true;\n    }\n}",
  "sourcePath": "/mnt/d/Projects/Solidity/solidity-challenge/smart-contracts/contracts/Staker.sol",
  "compiler": {
    "name": "solc",
    "version": "0.6.0+commit.26b70077.Emscripten.clang"
  },
  "schemaVersion": "3.3.2",
  "updatedAt": "2021-03-09T14:04:28.083Z",
  "devdoc": {
    "methods": {
      "airdrop(address,uint256)": {
        "details": "Function to provide ICO/AirDrop capability for owners."
      },
      "calculateReward(uint256,uint256)": {
        "details": "Function to calculate the reward."
      },
      "deposit(uint256)": {
        "details": "Function to allow stakers to deposit tokens to stake, requires a minimum of 100 tokens.",
        "returns": {
          "_0": "Staker ID."
        }
      },
      "withdraw(uint256)": {
        "details": "Function to withdraw."
      }
    }
  },
  "userdoc": {
    "methods": {}
  }
}