{
  "contractName": "Staker",
  "abi": [
    {
      "inputs": [],
      "stateMutability": "nonpayable",
      "type": "constructor"
    },
    {
      "anonymous": false,
      "inputs": [
        {
          "indexed": true,
          "internalType": "address",
          "name": "owner",
          "type": "address"
        },
        {
          "indexed": true,
          "internalType": "address",
          "name": "spender",
          "type": "address"
        },
        {
          "indexed": false,
          "internalType": "uint256",
          "name": "value",
          "type": "uint256"
        }
      ],
      "name": "Approval",
      "type": "event"
    },
    {
      "anonymous": false,
      "inputs": [
        {
          "indexed": false,
          "internalType": "address",
          "name": "user",
          "type": "address"
        },
        {
          "indexed": false,
          "internalType": "uint256",
          "name": "amount",
          "type": "uint256"
        }
      ],
      "name": "Staked",
      "type": "event"
    },
    {
      "anonymous": false,
      "inputs": [
        {
          "indexed": true,
          "internalType": "address",
          "name": "from",
          "type": "address"
        },
        {
          "indexed": true,
          "internalType": "address",
          "name": "to",
          "type": "address"
        },
        {
          "indexed": false,
          "internalType": "uint256",
          "name": "value",
          "type": "uint256"
        }
      ],
      "name": "Transfer",
      "type": "event"
    },
    {
      "anonymous": false,
      "inputs": [
        {
          "indexed": false,
          "internalType": "address",
          "name": "user",
          "type": "address"
        },
        {
          "indexed": false,
          "internalType": "uint256",
          "name": "amount",
          "type": "uint256"
        }
      ],
      "name": "Unstaked",
      "type": "event"
    },
    {
      "inputs": [
        {
          "internalType": "address",
          "name": "",
          "type": "address"
        }
      ],
      "name": "addrToId",
      "outputs": [
        {
          "internalType": "uint256",
          "name": "",
          "type": "uint256"
        }
      ],
      "stateMutability": "view",
      "type": "function"
    },
    {
      "inputs": [
        {
          "internalType": "address",
          "name": "",
          "type": "address"
        },
        {
          "internalType": "address",
          "name": "",
          "type": "address"
        }
      ],
      "name": "allowance",
      "outputs": [
        {
          "internalType": "uint256",
          "name": "",
          "type": "uint256"
        }
      ],
      "stateMutability": "view",
      "type": "function"
    },
    {
      "inputs": [
        {
          "internalType": "address",
          "name": "spender",
          "type": "address"
        },
        {
          "internalType": "uint256",
          "name": "value",
          "type": "uint256"
        }
      ],
      "name": "approve",
      "outputs": [
        {
          "internalType": "bool",
          "name": "success",
          "type": "bool"
        }
      ],
      "stateMutability": "nonpayable",
      "type": "function"
    },
    {
      "inputs": [
        {
          "internalType": "address",
          "name": "",
          "type": "address"
        }
      ],
      "name": "balanceOf",
      "outputs": [
        {
          "internalType": "uint256",
          "name": "",
          "type": "uint256"
        }
      ],
      "stateMutability": "view",
      "type": "function"
    },
    {
      "inputs": [
        {
          "internalType": "address",
          "name": "to",
          "type": "address"
        },
        {
          "internalType": "uint256",
          "name": "value",
          "type": "uint256"
        }
      ],
      "name": "mint",
      "outputs": [
        {
          "internalType": "bool",
          "name": "success",
          "type": "bool"
        }
      ],
      "stateMutability": "nonpayable",
      "type": "function"
    },
    {
      "inputs": [],
      "name": "minter",
      "outputs": [
        {
          "internalType": "address",
          "name": "",
          "type": "address"
        }
      ],
      "stateMutability": "view",
      "type": "function"
    },
    {
      "inputs": [],
      "name": "name",
      "outputs": [
        {
          "internalType": "string",
          "name": "",
          "type": "string"
        }
      ],
      "stateMutability": "view",
      "type": "function"
    },
    {
      "inputs": [],
      "name": "owner",
      "outputs": [
        {
          "internalType": "address",
          "name": "",
          "type": "address"
        }
      ],
      "stateMutability": "view",
      "type": "function"
    },
    {
      "inputs": [],
      "name": "stake_ids",
      "outputs": [
        {
          "internalType": "uint256",
          "name": "",
          "type": "uint256"
        }
      ],
      "stateMutability": "view",
      "type": "function"
    },
    {
      "inputs": [
        {
          "internalType": "uint256",
          "name": "",
          "type": "uint256"
        }
      ],
      "name": "stakers",
      "outputs": [
        {
          "internalType": "uint256",
          "name": "id",
          "type": "uint256"
        },
        {
          "internalType": "uint256",
          "name": "staked_amount",
          "type": "uint256"
        },
        {
          "internalType": "uint256",
          "name": "reward_earned",
          "type": "uint256"
        },
        {
          "internalType": "uint256",
          "name": "starting_date",
          "type": "uint256"
        },
        {
          "internalType": "address",
          "name": "addr",
          "type": "address"
        }
      ],
      "stateMutability": "view",
      "type": "function"
    },
    {
      "inputs": [],
      "name": "symbol",
      "outputs": [
        {
          "internalType": "string",
          "name": "",
          "type": "string"
        }
      ],
      "stateMutability": "view",
      "type": "function"
    },
    {
      "inputs": [],
      "name": "totalRewardRate",
      "outputs": [
        {
          "internalType": "uint256",
          "name": "",
          "type": "uint256"
        }
      ],
      "stateMutability": "view",
      "type": "function"
    },
    {
      "inputs": [],
      "name": "totalSupply",
      "outputs": [
        {
          "internalType": "uint256",
          "name": "",
          "type": "uint256"
        }
      ],
      "stateMutability": "view",
      "type": "function"
    },
    {
      "inputs": [
        {
          "internalType": "address",
          "name": "to",
          "type": "address"
        },
        {
          "internalType": "uint256",
          "name": "value",
          "type": "uint256"
        }
      ],
      "name": "transfer",
      "outputs": [
        {
          "internalType": "bool",
          "name": "success",
          "type": "bool"
        }
      ],
      "stateMutability": "nonpayable",
      "type": "function"
    },
    {
      "inputs": [
        {
          "internalType": "address",
          "name": "from",
          "type": "address"
        },
        {
          "internalType": "address",
          "name": "to",
          "type": "address"
        },
        {
          "internalType": "uint256",
          "name": "value",
          "type": "uint256"
        }
      ],
      "name": "transferFrom",
      "outputs": [
        {
          "internalType": "bool",
          "name": "success",
          "type": "bool"
        }
      ],
      "stateMutability": "nonpayable",
      "type": "function"
    },
    {
      "inputs": [
        {
          "internalType": "uint256",
          "name": "id",
          "type": "uint256"
        },
        {
          "internalType": "uint256",
          "name": "present",
          "type": "uint256"
        }
      ],
      "name": "calculateReward",
      "outputs": [
        {
          "internalType": "uint256",
          "name": "",
          "type": "uint256"
        }
      ],
      "stateMutability": "view",
      "type": "function"
    },
    {
      "inputs": [
        {
          "internalType": "uint256",
          "name": "id",
          "type": "uint256"
        }
      ],
      "name": "realizeGains",
      "outputs": [
        {
          "internalType": "bool",
          "name": "success",
          "type": "bool"
        }
      ],
      "stateMutability": "nonpayable",
      "type": "function"
    },
    {
      "inputs": [
        {
          "internalType": "address[10]",
          "name": "recipients",
          "type": "address[10]"
        }
      ],
      "name": "airdrop",
      "outputs": [
        {
          "internalType": "bool",
          "name": "success",
          "type": "bool"
        }
      ],
      "stateMutability": "nonpayable",
      "type": "function"
    },
    {
      "inputs": [
        {
          "internalType": "uint256",
          "name": "amount",
          "type": "uint256"
        }
      ],
      "name": "deposit",
      "outputs": [
        {
          "internalType": "uint256",
          "name": "",
          "type": "uint256"
        }
      ],
      "stateMutability": "nonpayable",
      "type": "function"
    },
    {
      "inputs": [
        {
          "internalType": "uint256",
          "name": "amount",
          "type": "uint256"
        }
      ],
      "name": "withdraw",
      "outputs": [
        {
          "internalType": "bool",
          "name": "success",
          "type": "bool"
        }
      ],
      "stateMutability": "nonpayable",
      "type": "function"
    }
  ],
  "bytecode": "0x60806040526040518060400160405280600f81526020017f50726573746f6e277320546f6b656e000000000000000000000000000000000081525060009080519060200190620000519291906200013b565b506040518060400160405280600481526020017f5052455300000000000000000000000000000000000000000000000000000000815250600190805190602001906200009f9291906200013b565b506064600a55348015620000b257600080fd5b5033600360006101000a81548173ffffffffffffffffffffffffffffffffffffffff021916908373ffffffffffffffffffffffffffffffffffffffff16021790555033600660006101000a81548173ffffffffffffffffffffffffffffffffffffffff021916908373ffffffffffffffffffffffffffffffffffffffff160217905550620001ea565b828054600181600116156101000203166002900490600052602060002090601f016020900481019282601f106200017e57805160ff1916838001178555620001af565b82800160010185558215620001af579182015b82811115620001ae57825182559160200191906001019062000191565b5b509050620001be9190620001c2565b5090565b620001e791905b80821115620001e3576000816000905550600101620001c9565b5090565b90565b611ea880620001fa6000396000f3fe608060405234801561001057600080fd5b506004361061012c5760003560e01c806340c10f19116100ad578063a9059cbb11610071578063a9059cbb146105ff578063b6b55f2514610665578063dd62ed3e146106a7578063e0d115501461071f578063fd5e6dd11461079e5761012c565b806340c10f191461041c57806370a08231146104825780638da5cb5b146104da57806395d89b4114610524578063a33c4df1146105a75761012c565b806318160ddd116100f457806318160ddd146102ce57806323b872dd146102ec5780632e1a7d4d14610372578063353ed234146103b857806338a6c2df146103fe5761012c565b806303238db21461013157806306fdde031461014f57806307546172146101d2578063095ea7b31461021c57806313ed084614610282575b600080fd5b610139610828565b6040518082815260200191505060405180910390f35b61015761082e565b6040518080602001828103825283818151815260200191508051906020019080838360005b8381101561019757808201518184015260208101905061017c565b50505050905090810190601f1680156101c45780820380516001836020036101000a031916815260200191505b509250505060405180910390f35b6101da6108cc565b604051808273ffffffffffffffffffffffffffffffffffffffff1673ffffffffffffffffffffffffffffffffffffffff16815260200191505060405180910390f35b6102686004803603604081101561023257600080fd5b81019080803573ffffffffffffffffffffffffffffffffffffffff169060200190929190803590602001909291905050506108f2565b604051808215151515815260200191505060405180910390f35b6102b86004803603604081101561029857600080fd5b8101908080359060200190929190803590602001909291905050506109e4565b6040518082815260200191505060405180910390f35b6102d6610ace565b6040518082815260200191505060405180910390f35b6103586004803603606081101561030257600080fd5b81019080803573ffffffffffffffffffffffffffffffffffffffff169060200190929190803573ffffffffffffffffffffffffffffffffffffffff16906020019092919080359060200190929190505050610ad4565b604051808215151515815260200191505060405180910390f35b61039e6004803603602081101561038857600080fd5b8101908080359060200190929190505050610f26565b604051808215151515815260200191505060405180910390f35b6103e4600480360360208110156103ce57600080fd5b810190808035906020019092919050505061101e565b604051808215151515815260200191505060405180910390f35b610406611280565b6040518082815260200191505060405180910390f35b6104686004803603604081101561043257600080fd5b81019080803573ffffffffffffffffffffffffffffffffffffffff16906020019092919080359060200190929190505050611286565b604051808215151515815260200191505060405180910390f35b6104c46004803603602081101561049857600080fd5b81019080803573ffffffffffffffffffffffffffffffffffffffff16906020019092919050505061146b565b6040518082815260200191505060405180910390f35b6104e2611483565b604051808273ffffffffffffffffffffffffffffffffffffffff1673ffffffffffffffffffffffffffffffffffffffff16815260200191505060405180910390f35b61052c6114a9565b6040518080602001828103825283818151815260200191508051906020019080838360005b8381101561056c578082015181840152602081019050610551565b50505050905090810190601f1680156105995780820380516001836020036101000a031916815260200191505b509250505060405180910390f35b6105e9600480360360208110156105bd57600080fd5b81019080803573ffffffffffffffffffffffffffffffffffffffff169060200190929190505050611547565b6040518082815260200191505060405180910390f35b61064b6004803603604081101561061557600080fd5b81019080803573ffffffffffffffffffffffffffffffffffffffff1690602001909291908035906020019092919050505061155f565b604051808215151515815260200191505060405180910390f35b6106916004803603602081101561067b57600080fd5b81019080803590602001909291905050506117af565b6040518082815260200191505060405180910390f35b610709600480360360408110156106bd57600080fd5b81019080803573ffffffffffffffffffffffffffffffffffffffff169060200190929190803573ffffffffffffffffffffffffffffffffffffffff169060200190929190505050611c25565b6040518082815260200191505060405180910390f35b610784600480360361014081101561073657600080fd5b81019080806101400190600a806020026040519081016040528092919082600a60200280828437600081840152601f19601f8201169050808301925050505050509192919290505050611c4a565b604051808215151515815260200191505060405180910390f35b6107ca600480360360208110156107b457600080fd5b8101908080359060200190929190505050611ceb565b604051808681526020018581526020018481526020018381526020018273ffffffffffffffffffffffffffffffffffffffff1673ffffffffffffffffffffffffffffffffffffffff1681526020019550505050505060405180910390f35b600a5481565b60008054600181600116156101000203166002900480601f0160208091040260200160405190810160405280929190818152602001828054600181600116156101000203166002900480156108c45780601f10610899576101008083540402835291602001916108c4565b820191906000526020600020905b8154815290600101906020018083116108a757829003601f168201915b505050505081565b600360009054906101000a900473ffffffffffffffffffffffffffffffffffffffff1681565b600081600560003373ffffffffffffffffffffffffffffffffffffffff1673ffffffffffffffffffffffffffffffffffffffff16815260200190815260200160002060008573ffffffffffffffffffffffffffffffffffffffff1673ffffffffffffffffffffffffffffffffffffffff168152602001908152602001600020819055508273ffffffffffffffffffffffffffffffffffffffff163373ffffffffffffffffffffffffffffffffffffffff167f8c5be1e5ebec7d5bd14f71427d1e84f3dd0314c0f7b2291e5b200ac8c7c3b925846040518082815260200191505060405180910390a36001905092915050565b600080610a23603c610a15600860008881526020019081526020016000206003015486611d4190919063ffffffff16565b611d5890919063ffffffff16565b90506000610a3c82600a54611d6c90919063ffffffff16565b90506000600860008781526020019081526020016000206001015490506000610aad600460003073ffffffffffffffffffffffffffffffffffffffff1673ffffffffffffffffffffffffffffffffffffffff1681526020019081526020016000205483611d5890919063ffffffff16565b9050610ac28184611d6c90919063ffffffff16565b94505050505092915050565b60025481565b6000600460008573ffffffffffffffffffffffffffffffffffffffff1673ffffffffffffffffffffffffffffffffffffffff16815260200190815260200160002054821115610b8b576040517f08c379a00000000000000000000000000000000000000000000000000000000081526004018080602001828103825260148152602001807f496e73756666696369656e742062616c616e636500000000000000000000000081525060200191505060405180910390fd5b81600560008673ffffffffffffffffffffffffffffffffffffffff1673ffffffffffffffffffffffffffffffffffffffff16815260200190815260200160002060003373ffffffffffffffffffffffffffffffffffffffff1673ffffffffffffffffffffffffffffffffffffffff168152602001908152602001600020541015610c7d576040517f08c379a00000000000000000000000000000000000000000000000000000000081526004018080602001828103825260168152602001807f496e73756666696369656e7420616c6c6f77616e63650000000000000000000081525060200191505060405180910390fd5b610ccf82600460008773ffffffffffffffffffffffffffffffffffffffff1673ffffffffffffffffffffffffffffffffffffffff16815260200190815260200160002054611d4190919063ffffffff16565b600460008673ffffffffffffffffffffffffffffffffffffffff1673ffffffffffffffffffffffffffffffffffffffff16815260200190815260200160002081905550610d6482600460008673ffffffffffffffffffffffffffffffffffffffff1673ffffffffffffffffffffffffffffffffffffffff16815260200190815260200160002054611da090919063ffffffff16565b600460008573ffffffffffffffffffffffffffffffffffffffff1673ffffffffffffffffffffffffffffffffffffffff16815260200190815260200160002081905550610e3682600560008773ffffffffffffffffffffffffffffffffffffffff1673ffffffffffffffffffffffffffffffffffffffff16815260200190815260200160002060003373ffffffffffffffffffffffffffffffffffffffff1673ffffffffffffffffffffffffffffffffffffffff16815260200190815260200160002054611d4190919063ffffffff16565b600560008673ffffffffffffffffffffffffffffffffffffffff1673ffffffffffffffffffffffffffffffffffffffff16815260200190815260200160002060003373ffffffffffffffffffffffffffffffffffffffff1673ffffffffffffffffffffffffffffffffffffffff168152602001908152602001600020819055508273ffffffffffffffffffffffffffffffffffffffff168473ffffffffffffffffffffffffffffffffffffffff167fddf252ad1be2c89b69c2b068fc378daa952ba7f163c4a11628f55a4df523b3ef846040518082815260200191505060405180910390a3600190509392505050565b6000600960003373ffffffffffffffffffffffffffffffffffffffff1673ffffffffffffffffffffffffffffffffffffffff168152602001908152602001600020546000600860008381526020019081526020016000206001015411610ff4576040517f08c379a000000000000000000000000000000000000000000000000000000000815260040180806020018281038252601b8152602001807f496e73756666696369656e74207374616b656420616d6f756e742e000000000081525060200191505060405180910390fd5b610ffe81426109e4565b600860008381526020019081526020016000206002018190555050919050565b60008160006008600083815260200190815260200160002060010154116110ad576040517f08c379a000000000000000000000000000000000000000000000000000000000815260040180806020018281038252601b8152602001807f496e73756666696369656e74207374616b656420616d6f756e742e000000000081525060200191505060405180910390fd5b6110b781426109e4565b6008600083815260200190815260200160002060020181905550600660009054906101000a900473ffffffffffffffffffffffffffffffffffffffff1673ffffffffffffffffffffffffffffffffffffffff163373ffffffffffffffffffffffffffffffffffffffff1614611177576040517f08c379a0000000000000000000000000000000000000000000000000000000008152600401808060200182810382526023815260200180611e006023913960400191505060405180910390fd5b6000600860008581526020019081526020016000206002015411611203576040517f08c379a00000000000000000000000000000000000000000000000000000000081526004018080602001828103825260148152602001807f496e73756666696369656e74207265776172642e00000000000000000000000081525060200191505060405180910390fd5b6112596008600085815260200190815260200160002060040160009054906101000a900473ffffffffffffffffffffffffffffffffffffffff166008600086815260200190815260200160002060020154611286565b50600060086000858152602001908152602001600020600201819055506001915050919050565b60075481565b60003373ffffffffffffffffffffffffffffffffffffffff16600360009054906101000a900473ffffffffffffffffffffffffffffffffffffffff1673ffffffffffffffffffffffffffffffffffffffff161461134b576040517f08c379a00000000000000000000000000000000000000000000000000000000081526004018080602001828103825260138152602001807f556e617574686f72697a6564206d696e7465720000000000000000000000000081525060200191505060405180910390fd5b61136082600254611da090919063ffffffff16565b6002819055506113b882600460008673ffffffffffffffffffffffffffffffffffffffff1673ffffffffffffffffffffffffffffffffffffffff16815260200190815260200160002054611da090919063ffffffff16565b600460008573ffffffffffffffffffffffffffffffffffffffff1673ffffffffffffffffffffffffffffffffffffffff168152602001908152602001600020819055508273ffffffffffffffffffffffffffffffffffffffff16600073ffffffffffffffffffffffffffffffffffffffff167fddf252ad1be2c89b69c2b068fc378daa952ba7f163c4a11628f55a4df523b3ef846040518082815260200191505060405180910390a36001905092915050565b60046020528060005260406000206000915090505481565b600660009054906101000a900473ffffffffffffffffffffffffffffffffffffffff1681565b60018054600181600116156101000203166002900480601f01602080910402602001604051908101604052809291908181526020018280546001816001161561010002031660029004801561153f5780601f106115145761010080835404028352916020019161153f565b820191906000526020600020905b81548152906001019060200180831161152257829003601f168201915b505050505081565b60096020528060005260406000206000915090505481565b600081600460003373ffffffffffffffffffffffffffffffffffffffff1673ffffffffffffffffffffffffffffffffffffffff168152602001908152602001600020541015611616576040517f08c379a00000000000000000000000000000000000000000000000000000000081526004018080602001828103825260158152602001807f496e73756666696369656e742062616c616e63652e000000000000000000000081525060200191505060405180910390fd5b61166882600460003373ffffffffffffffffffffffffffffffffffffffff1673ffffffffffffffffffffffffffffffffffffffff16815260200190815260200160002054611d4190919063ffffffff16565b600460003373ffffffffffffffffffffffffffffffffffffffff1673ffffffffffffffffffffffffffffffffffffffff168152602001908152602001600020819055506116fd82600460008673ffffffffffffffffffffffffffffffffffffffff1673ffffffffffffffffffffffffffffffffffffffff16815260200190815260200160002054611da090919063ffffffff16565b600460008573ffffffffffffffffffffffffffffffffffffffff1673ffffffffffffffffffffffffffffffffffffffff168152602001908152602001600020819055508273ffffffffffffffffffffffffffffffffffffffff163373ffffffffffffffffffffffffffffffffffffffff167fddf252ad1be2c89b69c2b068fc378daa952ba7f163c4a11628f55a4df523b3ef846040518082815260200191505060405180910390a36001905092915050565b600081600460003373ffffffffffffffffffffffffffffffffffffffff1673ffffffffffffffffffffffffffffffffffffffff168152602001908152602001600020541015611866576040517f08c379a00000000000000000000000000000000000000000000000000000000081526004018080602001828103825260158152602001807f496e73756666696369656e742062616c616e63652e000000000000000000000081525060200191505060405180910390fd5b60648210156118c0576040517f08c379a000000000000000000000000000000000000000000000000000000000815260040180806020018281038252602e815260200180611e23602e913960400191505060405180910390fd5b600660009054906101000a900473ffffffffffffffffffffffffffffffffffffffff1673ffffffffffffffffffffffffffffffffffffffff163373ffffffffffffffffffffffffffffffffffffffff161415801561194b5750600073ffffffffffffffffffffffffffffffffffffffff163373ffffffffffffffffffffffffffffffffffffffff1614155b6119bd576040517f08c379a00000000000000000000000000000000000000000000000000000000081526004018080602001828103825260188152602001807f4f776e6572206f7220696e7661696420616464726573732e000000000000000081525060200191505060405180910390fd5b600060086000600960003373ffffffffffffffffffffffffffffffffffffffff1673ffffffffffffffffffffffffffffffffffffffff1681526020019081526020016000205481526020019081526020016000209050611a3f600660009054906101000a900473ffffffffffffffffffffffffffffffffffffffff168461155f565b507f9e71bc8eea02a63969f509818f2dafb9254532904319f9dbda79b67bd34a5f3d3384604051808373ffffffffffffffffffffffffffffffffffffffff1673ffffffffffffffffffffffffffffffffffffffff1681526020018281526020019250505060405180910390a1600081600001541115611ae457611acf838260010154611da090919063ffffffff16565b81600101819055508060000154915050611c20565b611afa6001600754611da090919063ffffffff16565b600781905550611b08611dba565b6040518060a001604052806007548152602001858152602001600081526020014281526020013373ffffffffffffffffffffffffffffffffffffffff168152509050600754600960003373ffffffffffffffffffffffffffffffffffffffff1673ffffffffffffffffffffffffffffffffffffffff16815260200190815260200160002081905550806008600060075481526020019081526020016000206000820151816000015560208201518160010155604082015181600201556060820151816003015560808201518160040160006101000a81548173ffffffffffffffffffffffffffffffffffffffff021916908373ffffffffffffffffffffffffffffffffffffffff160217905550905050600754925050505b919050565b6005602052816000526040600020602052806000526040600020600091509150505481565b600061271060025410611ca8576040517f08c379a0000000000000000000000000000000000000000000000000000000008152600401808060200182810382526022815260200180611e516022913960400191505060405180910390fd5b60008090505b600a811015611ce157611cd38382600a8110611cc657fe5b60200201516103e8611286565b508080600101915050611cae565b5060019050919050565b60086020528060005260406000206000915090508060000154908060010154908060020154908060030154908060040160009054906101000a900473ffffffffffffffffffffffffffffffffffffffff16905085565b600082821115611d4d57fe5b818303905092915050565b6000818381611d6357fe5b04905092915050565b600080831415611d7f5760009050611d9a565b818302905081838281611d8e57fe5b0414611d9657fe5b8090505b92915050565b6000818301905082811015611db157fe5b80905092915050565b6040518060a0016040528060008152602001600081526020016000815260200160008152602001600073ffffffffffffffffffffffffffffffffffffffff168152509056fe4e6f7420746865206f776e65722c20756e617574686f72697a65642063616c6c65722e416d6f756e742069732062656c6f7720746865206d696e696d756d207374616b6520726571756972656d656e742e546f74616c20737570706c7920616d6f756e74206578636565646564203130303030a26469706673582212206ac05ee1c49d8df1cb5975f1f3c027495711d70e704bdcbb7692d83ac9ea289764736f6c63430006000033",
  "source": "// Contract to possess staked tokens and to distribute rewards.\n\npragma solidity ^0.6.0;\n\nimport \"./libs/SafeMath.sol\";\nimport \"./RewardToken.sol\";\n\ncontract Staker is RewardToken {\n\n    using SafeMath for uint256;\n\n    address public owner;\n    uint256 public stake_ids;\n    mapping(uint256 => StakeProfile) public stakers; // keeps track of stakers.\n    mapping(address => uint256) public addrToId; // associates IDs with staker address.\n    uint256 public totalRewardRate = 100; // a total of 100 rewards generated per minute to be distributed proportionally to all stakers.\n\n    event Staked(address user, uint256 amount);\n    event Unstaked(address user, uint256 amount);\n\n    /**\n    * @dev Struct to keep record of staker profile.\n    */\n    struct StakeProfile {\n        uint256 id;\n        uint256 staked_amount; // the amount of token locked for staking.\n        uint256 reward_earned;\n        uint256 starting_date;\n        address addr;\n    }\n\n    constructor() public {\n        owner = msg.sender;\n    }\n\n    /**\n    * @dev Function to calculate the reward.\n    */\n    function calculateReward(uint256 id, uint256 present) public view returns(uint256) {\n        uint durationInMin = (present.sub(stakers[id].starting_date)).div(60);\n        uint totalReward = totalRewardRate.mul(durationInMin);\n        uint staked = stakers[id].staked_amount;\n        uint percent = staked.div(balanceOf[address(this)]);\n        return totalReward.mul(percent);\n    }\n\n    /**\n    * @dev updates rewards. (Does not mint new tokens until withdrawal)\n    */\n    modifier updateReward(uint256 id) {\n        require(stakers[id].staked_amount > 0, \"Insufficient staked amount.\");\n        stakers[id].reward_earned = calculateReward(id, now);\n        _;\n    }\n\n    /**\n     * @dev the owner can periodically call this function to realize the rewards and distribute to the stakers.\n     */\n    function realizeGains(uint256 id) public updateReward(id) returns (bool success) {\n        require(msg.sender == owner, \"Not the owner, unauthorized caller.\");\n        require(stakers[id].reward_earned > 0, \"Insufficient reward.\");\n        mint(stakers[id].addr, stakers[id].reward_earned);\n        stakers[id].reward_earned = 0;\n        return true;\n    }\n\n    /**\n    * @dev Function to mint and distribute 1000 tokens to 10 addresses each. There will be a total supply of 10000 tokens by the end of this function call.\n    */\n    function airdrop(address[10] memory recipients) public returns(bool success) {\n        require(totalSupply < 10000, \"Total supply amount exceeded 10000\");\n        for (uint i = 0; i < 10; i++) {\n            mint(recipients[i], 1000);\n        }\n        return true;\n    }\n\n    /**\n    * @dev Function to allow stakers to deposit tokens to stake, requires a minimum of 100 tokens.\n    * @return Staker ID.\n    */\n    function deposit(uint256 amount) public returns(uint256) {\n        require(balanceOf[msg.sender] >= amount, \"Insufficient balance.\");\n        require(amount >= 100, \"Amount is below the minimum stake requirement.\");\n        require((msg.sender != owner) && (msg.sender != address(0)), \"Owner or invaid address.\");\n\n        StakeProfile storage staker = stakers[addrToId[msg.sender]];\n        transfer(owner, amount);\n\n        emit Staked(msg.sender, amount);\n\n        // check if the profile already exists.\n        if (staker.id > 0) {\n            staker.staked_amount = staker.staked_amount.add(amount);\n            return staker.id;\n        }\n        else {\n            stake_ids = stake_ids.add(1);\n            StakeProfile memory newStaker = StakeProfile(stake_ids, amount, 0, now, msg.sender);\n            addrToId[msg.sender] = stake_ids;\n            stakers[stake_ids] = newStaker;\n            return stake_ids;\n        }\n    }\n\n    /**\n    *\n    */\n    function withdraw(uint256 amount) public updateReward(addrToId[msg.sender]) returns (bool success) {\n        // code\n    } \n}",
  "sourcePath": "/mnt/d/Projects/Solidity/solidity-challenge/smart-contracts/contracts/Staker.sol",
  "compiler": {
    "name": "solc",
    "version": "0.6.0+commit.26b70077.Emscripten.clang"
  },
  "schemaVersion": "3.3.2",
  "updatedAt": "2021-03-01T07:43:41.194Z",
  "devdoc": {
    "methods": {
      "airdrop(address[10])": {
        "details": "Function to mint and distribute 1000 tokens to 10 addresses each. There will be a total supply of 10000 tokens by the end of this function call."
      },
      "calculateReward(uint256,uint256)": {
        "details": "Function to calculate the reward."
      },
      "deposit(uint256)": {
        "details": "Function to allow stakers to deposit tokens to stake, requires a minimum of 100 tokens.",
        "returns": {
          "_0": "Staker ID."
        }
      },
      "realizeGains(uint256)": {
        "details": "the owner can periodically call this function to realize the rewards and distribute to the stakers."
      }
    }
  },
  "userdoc": {
    "methods": {}
  }
}